:030000000201FDFD
:0C01FD00787FE4F6D8FD75810F0202093E
:1000F600C0F9A4B0999282F880908883C6A1868EB2
:10010600BFFFC0F9A4B0999282F88090010204085A
:1001160010204080C0F9A4B0999282F88090BF88E0
:10012600C63F065B4F666D7D077F6F777C395E79CC
:010136007157
:06019D00F5807F017E00E9
:1001A300E4FDFCC3ED9FEE6480F8EC64809850148A
:1001B3007B4D7A03EB1B70011AEB4A70F70DBD0000
:0401C300010C80DFCC
:0101C7002215
:10013700E5A0541F4480F5A07580FF53A01FE5A0DC
:10014700541F44A0F5A05380AF53A01FE5A0541F30
:1001570044C0F5A07580FF53A01FE5A0541F44E0DD
:09016700F5A07580FF53A01F22D2
:08000E008B088A09890A8D0B99
:10001600E4F50CC37407950CFFE50BA807088002EE
:10002600C313D8FC30E044E5A0541F44E0F5A075A6
:1000360080FFE5A0541F44C0F5A0AF0C7401A807CB
:10004600088002C333D8FC12019DE5A0541F44E08A
:10005600F5A0AB08AA09A90A850C827583001201CE
:100066007090011A93F5807F01802EE5A0541F44FD
:10007600E0F5A07580FFE5A0541F44C0F5A0AF0CC5
:100086007401A807088002C333D8FC12019DE5A0BD
:10009600541F44E0F5A07580FF1201A3050CE50C82
:0800A600D39407500302001976
:0100AE00222F
:1001C8008F0FA90512019FE5A0541F44C0F5A0E5B3
:1001D8000F90011293F58075A0E0E99000F693F571
:0601E800807F010201A36B
:0F01EE0075890175A882D28C758C3C758AB022F8
:0A0209001201EEE4F50EF50D80FE83
:03000B000200AF41
:1000AF00C0E0C083C082C0D0758C3C758A3CE50D22
:1000BF00C394145004050D8025E50D6414701FF5CD
:1000CF000DE50EB40A0D900127E493F4F580750E3B
:1000DF0001800BE50E90012793F4F580050ED0D02B
:0700EF00D082D083D0E03283
:10017000BB010CE58229F582E5833AF583E0225044
:1001800006E92582F8E622BBFE06E92582F8E2228E
:0D019000E58229F582E5833AF583E49322A8
:00000001FF
