:03000000020207F2
:0C020700787FE4F6D8FD75810E0201F747
:10014200C0F9A4B0999282F880908883C6A1868E65
:10015200BFFF0102040810204080C0F9A4B09992A8
:1001620082F88090BF88C63F065B4F666D7D077F31
:070172006F777C395E7971A3
:0601A600F5807F017E00E0
:1001AC00E4FDFCC3ED9FEE6480F8EC648098501481
:1001BC007B4D7A03EB1B70011AEB4A70F70DBD00F7
:0401CC00010C80DFC3
:0101D000220C
:10010900E5A0541F4480F5A07580FF53A01FE5A00A
:10011900541F44A0F5A05380AF53A01FE5A0541F5E
:1001290044C0F5A07580FF53A01FE5A0541F44E00B
:09013900F5A07580FF53A01F2200
:080003008B088A09890A8D0BA4
:10000B00E4F50CC37407950CFFE50BA807088002F9
:10001B00C313D8FC30E044E5A0541F44E0F5A075B1
:10002B0080FFE5A0541F44C0F5A0AF0C7401A807D6
:10003B00088002C333D8FC1201A6E5A0541F44E08C
:10004B00F5A0AB08AA09A90A850C827583001201D9
:10005B007990015C93F5807F01802EE5A0541F44BD
:10006B00E0F5A07580FFE5A0541F44C0F5A0AF0CD0
:10007B007401A807088002C333D8FC1201A6E5A0BF
:10008B00541F44E0F5A07580FF1201AC050CE50C84
:08009B00D39407500302000E8C
:0100A300223A
:1001D1008F0DA9051201A8E5A0541F44C0F5A0E5A3
:1001E1000D90015493F58075A0E0E990014293F5DB
:0601F100807F010201AC59
:07021300AE071FEE70FA2296
:1000A40075900FE590640F605B7FE8120213E59092
:1000B400640F605075900FAF90EF24F5601024FE2C
:1000C400601114601324077012E4F50E800D750E90
:1000D400018008750E028003750E037590F0AF90D1
:1000E400EF2450600C24E0600C24F0600C24708039
:1000F4000E7404800674088002740C250EF50EE557
:0501040090B4F0FB22A5
:1001F7001200A4E50E90016993F580E4F5A080F064
:10017900BB010CE58229F582E5833AF583E022503B
:1001890006E92582F8E622BBFE06E92582F8E22285
:0D019900E58229F582E5833AF583E493229F
:00000001FF
