:0300000002028277
:0C028200787FE4F6D8FD75810E0200A420
:10014500C0F9A4B0999282F880908883C6A1868E62
:10015500BFFF0102040810204080C0F9A4B09992A5
:1001650082F88090BF88C64D656E672066616E20F7
:100175006A756E0032303433343032303130390004
:0601BE00F5807F017E00C8
:1001C400E4FDFCC3ED9FEE6480F8EC648098501469
:1001D4007B4D7A03EB1B70011AEB4A70F70DBD00DF
:0401E400010C80DFAB
:0101E80022F4
:10018500E5A0541F4480F5A07580FF53A01FE5A08E
:10019500541F44A0F5A05380AF53A01FE5A0541FE2
:1001A50044C0F5A07580FF53A01FE5A0541F44E08F
:0901B500F5A07580FF53A01F2284
:080003008B088A09890A8D0BA4
:10000B00E4F50CC37407950CFFE50BA807088002F9
:10001B00C313D8FC30E044E5A0541F44E0F5A075B1
:10002B0080FFE5A0541F44C0F5A0AF0C7401A807D6
:10003B00088002C333D8FC1201BEE5A0541F44E074
:10004B00F5A0AB08AA09A90A850C827583001200DA
:10005B00FF90015F93F5807F01802EE5A0541F4434
:10006B00E0F5A07580FFE5A0541F44C0F5A0AF0CD0
:10007B007401A807088002C333D8FC1201BEE5A0A7
:10008B00541F44E0F5A07580FF1201C4050CE50C6C
:08009B00D39407500302000E8C
:0100A300223A
:1001E9008F0DA9051201C0E5A0541F44C0F5A0E573
:1001F9000D90015793F58075A0E0E990014593F5BD
:06020900807F010201C428
:10027100C2A7C2A6D2A5D2A7AF80EF20E7F2C2A73C
:01028100225A
:10022A00AE07120271C2A7C2A6C2A58E80D2A700CB
:09023A00C2A77F017E000201C48D
:10024300AE07120271C2A7D2A6C2A58E80D2A700A2
:09025300C2A77F017E000201C474
:10020F00C2A77F3812022A7F0C12022A7F0612021F
:0B021F002A7F0112022A7F8002022ABF
:1000A40012020F7F8212022AE4F50E7BFF7A017995
:1000B4006C12025CC3E50E9FE49E5015E50E9001A0
:1000C4006C93FF1202437F057E001201C4050E806B
:1000D400DA7FC212022AE4F50E7BFF7A01797912E3
:1000E400025CC3E50E9FE49E50B9E50E900179933E
:0B00F400FF1202431201C0050E80DE67
:1000FF00BB010CE58229F582E5833AF583E02250B6
:10010F0006E92582F8E622BBFE06E92582F8E222FF
:0D011F00E58229F582E5833AF583E4932219
:10025C00E4FFFE12012C600C0FEF70010E09E97027
:05026C00F20A80EF2200
:10012C00BB010689828A83E0225002E722BBFE02D1
:09013C00E32289828A83E4932204
:00000001FF
